:020000040040BA
:10000000282F402025374000D5374000D537400005
:10001000D5374000D5374000D537400000000000FC
:10002000000000000000000000000000D537400084
:10003000D537400000000000D5374000D5374000DC
:10004000D5374000D5374000DD0640009906400016
:10005000D5374000D5374000D5374000D537400070
:10006000D537400000000000DD2E4000F52E400096
:100070000D2F4000D5374000D5374000D537400020
:10008000252F40003D2F4000D5374000D537400098
:10009000D5374000D5374000D5374000D537400030
:1000A000D5374000D5374000D5374000D537400020
:1000B000D5374000D5374000D5374000D537400010
:1000C000D5374000D5374000D5374000D537400000
:1000D000D5374000D5374000D5374000D5374000F0
:1000E000D5374000D5374000D5374000D5374000E0
:1000F000D5374000D5374000D5374000D5374000D0
:10010000D5374000D5374000D5374000D5374000BF
:10011000D537400000000000000000000000000093
:10012000D5374000D5374000D5374000D53740009F
:10013000D5374000D5374000D5374000D53740008F
:10014000D5374000D5374000D5374000D53740007F
:10015000D5374000D5374000D5374000D53740006F
:10016000D5374000D537400010B5054C237833B95A
:10017000044B13B10448AFF300800123237010BD7A
:10018000B80940200000000084D944000C4B43B162
:100190000C480D4910B5AFF300800C48036823B933
:1001A00010BD0A48036833B97047094B002BF7D0DC
:1001B000BDE810401847064B002BF5D0184700BF8C
:1001C0000000000084D94400BC09402084D94400C8
:1001D0000000000080B487B000AFF860B9607A60BA
:1001E0003B60FB689B687B6102E0FB689B687B610E
:1001F000FB689A687B699A42F7D1BB68002B1CD0D8
:100200007B691B0C03F03F033B613B691A091346F2
:100210009B0013445B001A463B6903F00F031A442A
:10022000BB681A607B6903F48003002B05D0BB68B0
:100230001B6803F10C02BB681A607B68002B11D0AD
:100240007B691B0A03F07F033B613B691A09134674
:100250009B0013445B001A463B6903F00F031A44EA
:100260007B681A603B68002B10D07B6903F07F032A
:100270003B613B691A0913469B0013445B001A4615
:100280003B6903F00F031A443B681A6000BF1C3738
:10029000BD465DF8047B704780B487B000AFF8605E
:1002A000B9607A603B6000237B61BB68002B24D07F
:1002B000FB685B6803F00103012B09D17B680C2B01
:1002C00006D97B680C3B7B607B6943F480037B61D0
:1002D0007B682E4AA2FB0323DB08180579682B4BA9
:1002E000A3FB0123DA0813469B0013445B00CA1AE0
:1002F000130403437A6913437B613B68002B14D0DA
:100300003B6A224AA2FB0323DB081803396A1F4B0E
:10031000A3FB0123DA0813469B0013445B00CA1AAF
:10032000130203437A6913437B617B6A002B14D069
:10033000BB6A164AA2FB0323DB081801B96A134BF8
:10034000A3FB0123DA0813469B0013445B00CA1A7F
:1003500040EA02037A6913437B61FB681A690C4B1C
:100360001340FA681361FB687A691A61FB681A69BD
:10037000084B1343FA681361FB68DB6A03F004035C
:1003800018461C37BD465DF8047B7047CDCCCCCCFD
:100390007F7F7FFF8080800080B483B000AF786073
:1003A0007B689B6918460C37BD465DF8047B704737
:1003B00080B483B000AF786039607B683A68DA61F6
:1003C00000BF0C37BD465DF8047B704780B483B036
:1003D00000AF78600B467B807A88074B1B6813431D
:1003E00043F480227B681A60002318460C37BD4610
:1003F0005DF8047B704700BFD409402080B483B00F
:1004000000AF78600B46FB70FB78002B0DD0104BD3
:100410001B6843F080730E4A13607B681A680C4BAC
:100420001B681A437B681A600CE0094B1B6823F0B9
:100430008073074A13607B681A68054B1B681A4370
:100440007B681A6000BF0C37BD465DF8047B7047BF
:10045000D409402080B485B000AF786039607B68F3
:100460001B68FB60FA683B681343FB60064B1B6824
:10047000FA681343FB607B68FA681A6000BF1437A0
:10048000BD465DF8047B7047D409402080B485B038
:1004900000AF786039600023FB607B681B68FB60FD
:1004A0003B68DB43FA681340FB60074B1B68FA6844
:1004B0001343FB607B68FA681A6000BF1437BD46BF
:1004C0005DF8047B704700BFD409402080B485B03C
:1004D00000AF78607B689B68FB6002E07B689B688C
:1004E000FB607B689A68FB689A42F7D1FB68184604
:1004F0001437BD465DF8047B704780B483B000AF0D
:1005000078607B68DB6818460C37BD465DF8047B75
:100510007047000080B584B000AF786039607B68B8
:100520001B6803F48033FB604FF480310D480E4BA1
:1005300098473B68002B04D17B684FF0FF325A602C
:1005400003E03B685A1E7B685A60FB68002B04D0AE
:100550004FF480310348054B984700231846103765
:10056000BD4680BD30180E408D044000550440004B
:1005700080B483B000AF0346FB71094997F9073097
:100580005B09FA7902F01F02012000FA02F241F839
:10059000232000BF0C37BD465DF8047B704700BFC9
:1005A00000E100E080B483B000AF0346FB7109496D
:1005B00097F907305B09FA7902F01F02012000FA6F
:1005C00002F2203341F8232000BF0C37BD465DF80E
:1005D000047B704700E100E080B483B000AF0346C5
:1005E000FB71094997F907305B09FA7902F01F029C
:1005F000012000FA02F2603341F8232000BF0C37DB
:10060000BD465DF8047B704700E100E080B483B034
:1006100000AF03463960FB7197F90730002B0BDA06
:100620000D49FB7903F00F03043B3A68D2B2520143
:10063000D2B20B441A7609E0084997F907303A68B4
:10064000D2B25201D2B20B4483F8002300BF0C3760
:10065000BD465DF8047B704700ED00E000E100E07E
:1006600080B400AF034B01221A7000BFBD465DF895
:10067000047B7047C40E402080B483B000AF786024
:100680003960044B01221A7000BF0C37BD465DF87B
:10069000047B7047F80E402080B582B000AF0A4856
:1006A0000A4B984778607B6803F00103002B07D062
:1006B0004FF480710648074B9847074B01221A7088
:1006C00000BF0837BD4680BD30180E40FB04400017
:1006D00000120E4075074000D809402090B589B03F
:1006E00004AF1F481F4B9847F860FB6803F00403F2
:1006F000002B03D004211A481B4B9847FB6803F0DA
:100700000203002B18D002211548174B98473B468F
:100710003A1D07F108011248144CA047B9687B68DC
:100720003A680132029200220192009301230A46A4
:1007300001210B480E4CA047012109480A4B98475C
:1007400008210748084B984710210548064B984751
:1007500020210348044B984700BF1437BD4690BD85
:1007600060180E4099034000B1034000D5014000DD
:100770009902400080B582B000AF78603960396876
:100780007868094B98470346002B04D0396878688D
:10079000064B984703E039687868054B984700BFD7
:1007A0000837BD4680BD00BF552A4000792740006C
:1007B0005D27400090B583B002AF0A20104B9847E8
:1007C00009224FF080510F480F4B98474FF080514E
:1007D0000C480E4B98470E4B009350234FF080521D
:1007E0000A2108480B4CA0470A200B4B98470121CF
:1007F0000A200A4B984700BF0437BD4690BD00BF92
:1008000019324000000E0E40A5284000E92A4000A1
:10081000790640003D2E4000710540000D06400065
:1008200090B583B002AF0C20164B984700234FF4CD
:1008300080724FF040511448144CA0470A20114BCD
:10084000984701234FF400624FF0205110480F4C9D
:10085000A047104B009370234FF400620A210C480C
:100860000D4CA0474FF4006109480C4B98470A20F3
:100870000B4B984704210A200A4B984700BF0437C6
:10088000BD4690BD1932400000120E40892940003B
:10089000000E0E40610640003D2E4000E92A400057
:1008A000710540000D06400080B584B000AF0346DE
:1008B0003960FB8000211848184B9847FB8819467F
:1008C0001548174B98471448164B9847F86000BFD7
:1008D0001148144B98470246FB689A42F8D03A6890
:1008E000FB68134419460C480F4B984703200F4BE5
:1008F000984703200E4B9847002103200D4B984743
:1009000003200D4B98474FF4803103480B4B984719
:1009100000BF1037BD4680BD30180E40FD034000BB
:10092000CD034000CD04400015054000A505400062
:10093000D90540000D0640007105400055044000F7
:1009400098B500AF0D4B4FF4A0721A600B4B4FF4EB
:10095000F0725A60094B0A4A9A60084B084ADA60FA
:100960000648084B984740F2DF1340F23F1200213F
:100970000020054CA04700BF98BD00BFC80E402016
:10098000FCFCFC001D1640006918400090B58BB0BF
:1009900002AFF860B9607A603B60BB68FB612EE033
:1009A000FB691B78FB76FB7EFA68127A9B1A7B61E7
:1009B000FB685B7AFA7E9A421ED8FB685A687B69AC
:1009C000DB0013443B61786839683B695B685B68AE
:1009D0001A463B695B689B681C463B695B681B6801
:1009E000009323460A4CA0473B695B685A683B6BFF
:1009F00013447A6813447B60FB690133FB61FB6934
:100A00001B78002BCCD100BF2437BD4690BD00BF62
:100A100045194000000000002DE9F0438BB004AF01
:100A2000A14B4FF400425A60A04B9847A04B984707
:100A3000A04B9847A04B98470123029301230193B1
:100A4000002300930123002201219C489C4CA047D5
:100A50009C4B01221A709C4B984702209B4B984755
:100A60003B1D07F1080207F10C019448984CA04780
:100A7000FA68B9687B6800930B4696499648974C8C
:100A8000A047012300933223322293499448954C86
:100A9000A047954B1B78DBB2002B02D0934B002272
:100AA0001A60934B1B78DBB2002B07D0914B1B686D
:100AB0000133904A13608E4B00221A70814B1B78D1
:100AC000DBB2002BC9D04FF48043FB8204233B618F
:100AD000894B1A68894B1046984705460E46854B48
:100AE0001A68864B10469847854C6BA3D3E90023C0
:100AF000A04703460C469846A146824B3869984762
:100B000002460B46804C40464946A04703460C46E9
:100B10001A4623467D4C28463146A04703460C46DC
:100B2000194622467A4B0846114698470246794BA9
:100B30001A60704B1A68714B10469847704C56A358
:100B4000D3E90023A04703460C461D4626466D4BBD
:100B50003869984702460B466B4C28463146A047F9
:100B600003460C4619462246694B084611469847EB
:100B70000246614B1A605D4B1A68604B10469847FD
:100B800005460E465B4B1A685C4B104698475C4C1A
:100B900043A3D3E90023A04703460C461A46234645
:100BA0005D4C28463146A04703460C46194622466E
:100BB000574B08461146984702464C4B1A604E4B1D
:100BC0001A68564B1B689A4203DD4B4B1B68534A0D
:100BD0001360494B1B681A46514952483F4B98478E
:100BE000424B1B681A464E494F483C4B98474B4B6B
:100BF0001B681A464A494D48384B984701230093D1
:100C00009623322247494A48364CA047414B1B683D
:100C1000002B08DA0123009364233222454930482F
:100C2000304CA04707E0012300936423322242495D
:100C30002B482C4CA04701230093FA2332223F4932
:100C40002748284CA047012300934FF49673322283
:100C500035493748234CA047012300934FF4C8730C
:100C6000322237491E481F4CA047012300934FF4FE
:100C7000C873C8222D491A481A4CA047FB8A396903
:100C80001846304B98470F4B00221A70194B002220
:100C90001A60E2E6AFF300801F85EB51B81E1940E1
:100CA0008816D9CEF753104050180E40A9254000A1
:100CB000E5204000410940002108400060180E4036
:100CC00099024000D8094020B50740000533400094
:100CD000D501400084D64400D80E40201D4340007A
:100CE000BC4B43008D094000F80E4020E409402031
:100CF000C40E4020DC094020E0094020F13C4000C7
:100D0000BD3D4000D13C400011404000553A4000FC
:100D1000E1414000E8094020593A4000EC094020F8
:100D200090D64400640E4020840E4020A40E402043
:100D300078D6440098D64400A8D64400B8D64400DB
:100D4000C4D64400A908400080B483B000AF7860E6
:100D50007B68072B25D801A252F823F07D0D4000B7
:100D6000830D4000890D40008F0D4000930D400021
:100D7000970D40009B0D40009F0D40004FF4FA433B
:100D800010E04FF400430DE04FF400430AE0084B3D
:100D900008E0084B06E0084B04E0074B02E0064B76
:100DA00000E0002318460C37BD465DF8047B704711
:100DB00000093D0000127A00001BB70080B500AFAB
:100DC0000620054B9847024613469B0013449A00A1
:100DD0001344184680BD00BF490D400080B500AFE8
:100DE000024B984703465B08184680BDBD0D400086
:100DF00080B483B000AF78607B6880221A6000BF47
:100E00000C37BD465DF8047B704780B483B000AFFB
:100E100078607B685B6843F001027B685A6000BFC2
:100E20000C37BD465DF8047B704780B483B000AFDB
:100E300078607B685B6823F002027B685A6000BFC1
:100E40000C37BD465DF8047B704780B483B000AFBB
:100E500078607B685B6823F004027B685A6000BF9F
:100E60000C37BD465DF8047B704780B483B000AF9B
:100E700078607B685B6803F00403002B01D00123DA
:100E800000E0002318460C37BD465DF8047B704730
:100E900080B483B000AF78607B685B6843F0100279
:100EA0007B685A6000BF0C37BD465DF8047B704715
:100EB00080B483B000AF78607B685B6823F0800209
:100EC0007B685A6000BF0C37BD465DF8047B7047F5
:100ED00080B483B000AF78600B467B807A887B68F3
:100EE000DA6000BF0C37BD465DF8047B704780B404
:100EF00083B000AF78607B689B689BB218460C3764
:100F0000BD465DF8047B704780B483B000AF786065
:100F10007B681B6903F00203002B01D0012300E072
:100F2000002318460C37BD465DF8047B704780B43B
:100F300083B000AF78607B681A6940F201231340E8
:100F400040F20122934201D1012300E00023184620
:100F50000C37BD465DF8047B7047000080B582B059
:100F600000AF78600B46FB70FB789BB2194678683F
:100F7000024B984700BF0837BD4680BDD10E4000E8
:100F800080B582B000AF786039607868044B9847CC
:100F90000346DAB23B681A7000BF0837BD4680BD11
:100FA000EF0E400080B582B000AF78607868104BDB
:100FB000984778680F4B984778680F4B9847786840
:100FC0000E4B984778680E4B9847002178680D4B78
:100FD000984778680C4B984778680C4B98470021E5
:100FE00078680B4B984700BF0837BD4680BD00BFEF
:100FF0003D1A4000F10D40000B0E4000910E4000E4
:10100000B10E4000791A40002B0E40004B0E4000FC
:10101000AD1A400090B587B000AFF860B9603B6092
:101020001346FB71204B98470346194638681F4BFF
:1010300098470346FB82BB68196800230022F868C2
:101040001B4CA047BB681B6808221946F868194B5F
:101050009847BB681B68FA8AD2B21946F868164BE3
:101060009847BB681B6808221946F868134B9847D5
:10107000BB681968FB795B08DBB21A46F868104B4D
:101080009847BB681968FB7903F00103002B0CBF7C
:1010900001230023DBB21A46F8680A4B984700BFC9
:1010A0001C37BD4690BD00BFDD0D4000ED1C40006B
:1010B000871D4000A31C4000291D4000FD1B40006F
:1010C0005D1B4000AD1B400080B582B000AF786072
:1010D00039607868104B98470346002B0AD03B686C
:1010E0001B680F2B14D83B681B68194678680B4B9C
:1010F00098470DE03B681B68032B09D83B681B68C9
:10110000012202FA03F3DB4319467868034B984740
:1011100000BF0837BD4680BD6B0E4000791A400005
:1011200080B588B000AFF860B9607A6043F6982364
:10113000FB610023BB6121E043F69823FB6107E0DC
:10114000FB695A1EFA61002B02D16FF0020319E00D
:10115000F8680E4B98470346002BF1D0BA68BB697C
:1011600013441B78FB75FB7D1946F868084B9847BC
:10117000BB690133BB617B68013B7B607B68002BF3
:10118000DAD1002318462037BD4680BD090F400044
:101190005D0F400080B588B000AFF860B9607A603C
:1011A00043F69823FB610023BB6138E043F69823A4
:1011B000FB6107E0FB695A1EFA61002B02D16FF058
:1011C000020330E0F8681A4B98470346002BF1D031
:1011D000FF21F868174B984743F69823FB6107E017
:1011E000FB695A1EFA61002B02D16FF002031AE06C
:1011F000F868114B98470346002BF1D007F117030D
:101200001946F8680D4B9847BA68BB691344FA7DD4
:101210001A70BB690133BB617B68013B7B607B68F3
:10122000002BC3D1002318462037BD4680BD00BF28
:10123000090F40005D0F40002F0F4000810F40005C
:1012400080B483B000AF78607B6801221A6000BF71
:101250000C37BD465DF8047B704780B483B000AFA7
:10126000786039607B683A685A6100BF0C37BD46C8
:101270005DF8047B7047000090B583B000AF062096
:101280000A4B9847002303222C210948094CA04708
:1012900000237B6002E07B6801337B607B68FE2B70
:1012A000F9D900BF0C37BD4690BD00BF812B40006F
:1012B00000800040DD1A400080B584B000AF786047
:1012C00039600620094B98473A6879680848094B05
:1012D00098470023FB6002E0FB680133FB60FB687A
:1012E000FE2BF9D900BF1037BD4680BD512B400001
:1012F000008000402111400090B587B000AF034648
:10130000B9607A60FB730620144B9847FB7B99B257
:10131000002303221248134CA04700237B6102E004
:101320007B6901337B617B69FE2BF9D97B68002BDC
:1013300010D006200C4B98477A68B96808480B4BC8
:10134000984700237B6102E07B6901337B617B6905
:101350005E2BF9D900BF1C37BD4690BD812B4000E4
:1013600000800040DD1A4000512B40002111400058
:1013700080B584B000AF0023BB608123BB70002325
:101380007B700323FB6048E0BB1C01221946FB2055
:10139000264B9847BB780133DBB2BB7000237B60E0
:1013A00002E07B6801337B607B68FE2BF9D9002269
:1013B0000021D3201D4B984706201D4B9847FB1C4E
:1013C000012219461B481C4B984700237B6002E012
:1013D0007B6801337B607B68FE2BF9D9FB781A466A
:1013E000FB68013BDB0002FA03F31A46BB681343B8
:1013F000BB607B1C01221946FB200C4B9847002345
:101400007B6002E07B6801337B607B6840F6FE72A4
:101410009342F7D9FB68013BFB60FB68002BB3D11B
:10142000BB6818461037BD4680BD00BFF9124000AA
:10143000512B4000008000409511400080B485B0E1
:1014400000AF78600023FB600CE00023FB6002E04B
:10145000FB680133FB60FB68074A9342F8D9FB68DD
:101460000133FB60FA687B689A42EED300BF143701
:10147000BD465DF8047B70479F86010080B487B04D
:1014800000AFF860B9607A603B60FB681B68B3F539
:10149000A07F03D3FB6840F23F121A607B681B6891
:1014A000B3F5A07F03D37B6840F23F121A60BB689C
:1014B0001B68B3F5F07F03D3BB6840F2DF121A60FC
:1014C0003B681B68B3F5F07F03D33B6840F2DF1243
:1014D0001A60FB681A687B681B689A4209D9FB6826
:1014E0001B687B617B681A68FB681A607B687A6995
:1014F0001A60BB681A683B681B689A4209D9BB68C6
:101500001B687B613B681A68BB681A603B687A6934
:101510001A6000BF1C37BD465DF8047B70470000B1
:1015200080B584B000AF0346FB71FB79002B02D07D
:10153000E823FB7301E04823FB7307F10F0301224B
:1015400019463620024B984700BF1037BD4680BD74
:10155000F912400090B587B000AF04460846114626
:101560001A462346FB800346BB800B467B8013460E
:101570003B8000237B6104237B61FB887B827A882C
:10158000FB8813449BB2013B9BB23B82BB88FB812F
:101590003A88BB8813449BB2013B9BB2BB8107F1E5
:1015A00012035B783B7207F112031B787B7207F121
:1015B00010035B78BB7207F110031B78FB7207F115
:1015C00008037A6919462A20134B98470022002104
:1015D0000020114B984707F10E035B783B7207F12F
:1015E0000E031B787B7207F10C035B78BB7207F16B
:1015F0000C031B78FB7207F108037A6919462B204C
:10160000054B9847002200210020034B984700BF5C
:101610001C37BD4690BD00BFF912400090B589B09F
:1016200002AF78600323FB604348444B984707F1BF
:101630000C0100230093424B03223F48414CA0473A
:10164000002203213C48404B984707F10C03194600
:1016500039483E4B984738483D4B9847012136481A
:101660003C4B98470022002101203B4B9847C82063
:101670003A4B9847002200211120374B9847C82049
:10168000364B9847364B984778617B6949F28842D8
:10169000934201D001234AE04823FB7407F113036E
:1016A0000122194636202C4B984764202B4B984733
:1016B0000423FB7407F1130301221946CF20264BA4
:1016C00098476420254B98470623FB7407F11303C2
:1016D000012219463A20204B984764201F4B984717
:1016E0000022002113201C4B984764201B4B984775
:1016F0001C4B98476420194B984700201A4B984779
:101700006420164B98477B681B689AB27B685B68BD
:101710009BB200210020154CA0477B689B681846AF
:10172000134B984700210020124B9847002318467E
:101730001C37BD4690BD00BF00800040A50F400093
:10174000002D310115104000FD1B4000C910400064
:10175000411240005B124000F91240003D1440006D
:1017600071134000791740002115400055154000C5
:1017700091174000E517400080B500AF002200211E
:101780002920024B984700BF80BD00BFF9124000DE
:1017900080B485B000AF78600023FB6016E0FB6882
:1017A0005A1CFA607A68120CD1B20D4AD154FB6807
:1017B0005A1CFA607A68120AD1B2094AD154FB68FD
:1017C0005A1CFA607A68D1B2054AD154FB68B3F565
:1017D000707FE4D300BF1437BD465DF8047B7047CB
:1017E000F009402080B584B000AF03460A46FB8074
:1017F0001346BB800023FB600423FB60BB1D5B78AA
:101800003B72BB1D1B787B72BB1D5B78BB72BB1D23
:101810001B78FB7207F10803FA6819462A20114B5E
:1018200098470022002100200E4B98473B1D5B7813
:101830003B723B1D1B787B723B1D5B78BB723B1D73
:101840001B78FB7207F10803FA6819462B20054B39
:101850009847002200210020024B984700BF103714
:10186000BD4680BDF912400090B587B000AFF8606A
:10187000B9607A603B603B463A1D07F1080107F109
:101880000C002A4CA047FB6898B2BB6899B27B68F1
:101890009AB2FB689BB2D31A9BB201339CB23B68ED
:1018A0009AB2BB689BB2D31A9BB201339BB2224659
:1018B0001F4CA0471F4B98477A68FB68D31A013327
:1018C0003968BA688A1A013202FB03F33B613B694B
:1018D000194AA2FB03231B0A7B6104E04FF47071D9
:1018E0001648174B98477B695A1E7A61002BF5D131
:1018F0003969114BA3FB01231A0A13469B001344B9
:101900009B01CA1A13465B00134419460B480C4B43
:1019100098474FF4F0734FF4A07200210020044C5C
:10192000A04700BF1C37BD4690BD00BF7D144000DE
:101930005515400079124000CDCCCCCCF0094020A8
:10194000B912400090B58BB000AFF860B9607A6012
:101950003B60FB683B62BB68FB61FA687B681344D1
:10196000013BBB61BA683B681344013B7B6107F1F3
:10197000140307F1180207F11C0107F120001B4CAA
:10198000A0473B6A98B2FB6999B2BB699AB23B6ABD
:101990009BB2D31A9BB201339CB27B699AB2FB69AA
:1019A0009BB2D31A9BB201339BB22246104CA04784
:1019B000BA693B6AD31A7969FA698A1A02FB03F396
:1019C0007B627A6A13465B0013441A46B96B2C207B
:1019D000084B98474FF4F0734FF4A0720021002099
:1019E000034CA04700BF2C37BD4690BD7D1440007E
:1019F00055154000F912400080B483B000AF786004
:101A00007B685B6803F00203002B01D0012300E038
:101A1000002318460C37BD465DF8047B7047000074
:101A200080B582B000AF78607868034B984700BFFC
:101A30000837BD4680BD00BF1932400080B582B076
:101A400000AF78607B68094A934203D11520084BA8
:101A5000984706E07B68074A934202D12A20044B4C
:101A6000984700BF0837BD4680BD00BF00800040DA
:101A7000211A40000080054080B483B000AF786038
:101A800039607B685B6823F470227B685A607B68EE
:101A90005A683B681B0403F470231A437B685A603E
:101AA00000BF0C37BD465DF8047B704780B483B03F
:101AB00000AF786039607B685B6823F07F427B68A9
:101AC0005A607B685A683B681B061A437B685A60F9
:101AD00000BF0C37BD465DF8047B704780B584B00D
:101AE00000AF7860084611461A4603467B800B46D5
:101AF0007B7013463B7043F69823FB6006E0FB685F
:101B00005A1EFA60002B01D1012320E07B681B697B
:101B100003F00203002BF2D078680F4B984703467E
:101B2000002B0ED07A887B781B0403F470231343B8
:101B3000BB603B78002B06D0BB6843F08073BB6072
:101B400001E07B88BB607B68BA68DA6000231846D6
:101B50001037BD4680BD00BFF919400080B485B084
:101B600000AFF860B9607A607B68002B0CD0FB682E
:101B7000BA680C3253F8223043F00101FB68BA68AE
:101B80000C3243F822100BE0FB68BA680C3253F8B1
:101B9000223023F00101FB68BA680C3243F82210AE
:101BA00000BF1437BD465DF8047B704780B485B034
:101BB00000AFF860B9607A607B68002B0CD0FB68DE
:101BC000BA680C3253F8223043F00201FB68BA685D
:101BD0000C3243F822100BE0FB68BA680C3253F861
:101BE000223023F00201FB68BA680C3243F822105D
:101BF00000BF1437BD465DF8047B704780B485B0E4
:101C000000AFF860B9607A607B68042B18D1FB687C
:101C1000BA680C3253F8223023F00801FB68BA6826
:101C20000C3243F82210FB68BA680C3253F82230A9
:101C300043F00401FB68BA680C3243F822102AE032
:101C40007B68002B18D1FB68BA680C3253F822303D
:101C500023F00801FB68BA680C3243F82210FB68D5
:101C6000BA680C3253F8223023F00401FB68BA68DA
:101C70000C3243F822100EE07B68082B0BD1FB6876
:101C8000BA680C3253F8223043F00801FB68BA6896
:101C90000C3243F8221000BF1437BD465DF8047BB8
:101CA000704780B485B000AFF860B9607A60FB68B7
:101CB000BA680C3253F8223023F0F001FB68BA689E
:101CC0000C3243F82210FB68BA680C3253F8222019
:101CD0007B6842EA0301FB68BA680C3243F82210C1
:101CE00000BF1437BD465DF8047B704780B485B0F3
:101CF00000AF786039603A687B6813445A1E7B688D
:101D0000B2FBF3F3FB60FB68002B02DDFB68FF2BEB
:101D100002DD4FF0FF3301E0FB681BB218461437B9
:101D2000BD465DF8047B704780B485B000AFF860B5
:101D3000B9601346FB71FB79002B02D14FF0FF33E2
:101D40001BE0FB68BA680C3253F8223023F47F4161
:101D5000FB68BA680C3243F82210FB68BA680C3290
:101D600053F82220FB791B029BB242EA0301FB6875
:101D7000BA680C3243F82210002318461437BD46C7
:101D80005DF8047B704780B485B000AFF860B9603F
:101D900011461A460B46FB711346BB71FB68BA68C5
:101DA0000C3253F8223099B2FB68BA680C3243F80F
:101DB0002210FB68BA680C3253F82220FB791B040E
:101DC00003F47F03B97909060B4342EA0301FB6878
:101DD000BA680C3243F8221000BF1437BD465DF8D4
:101DE000047B704780B582B000AF78607B68072BBA
:101DF00031D801A252F823F0551E4000191E4000B0
:101E0000211E4000291E4000311E4000391E4000A6
:101E1000411E40004B1E40000020114B98471AE025
:101E200001200F4B984716E000200E4B984712E018
:101E300010200C4B98470EE020200A4B98470AE0F0
:101E40003E210020084B984705E03E210120064B2B
:101E5000984700E000BF00BF0837BD4680BD00BF07
:101E600055304000C13040003131400080B582B073
:101E700000AF78607B68072B26D801A252F823F0C8
:101E8000A11E4000A51E4000A51E4000B71E400038
:101E9000B71E4000B71E4000B71E4000B71E4000EE
:101EA000012312E00B4B98470346002B14BF01237C
:101EB0000023DBB209E0084B98470346002B14BF10
:101EC00001230023DBB200E0002318460837BD469B
:101ED00080BD00BF8D304000A931400080B483B088
:101EE00000AF78607B68072B25D801A252F823F059
:101EF000111F4000171F40001D1F4000231F4000FE
:101F0000271F40002B1F40002F1F4000331F4000A1
:101F10004FF4FA4310E04FF400430DE04FF4004358
:101F20000AE0084B08E0084B06E0084B04E0074BCA
:101F300002E0064B00E0002318460C37BD465DF872
:101F4000047B704700093D0000127A00001BB700B7
:101F500080B582B000AF0346FB7100BFFB79184625
:101F6000054B9847034683F00103DBB2002BF5D104
:101F700000BF0837BD4680BD6D1E400080B586B0ED
:101F800000AFF8607A603B600B46FB727B68002B09
:101F900007D13B68002B04D1FB684FF470021A6034
:101FA00019E0FB7A18460E4B984702467B68B2FB55
:101FB000F3F37B617B693A6802FB03F37B613B6867
:101FC000013B1A04074B13407A68D2B2134343F41F
:101FD0007C52FB681A6000BF1837BD4680BD00BF49
:101FE000DD1E40000000FF0780B582B000AF7860C2
:101FF00039603B68002B08D1094B9847094A7B6838
:102000001B6843F00053936205E0064A7B681B6837
:1020100043F48033D36100BF0837BD4680BD00BFA5
:10202000C531400000060E4080B582B000AF786038
:102030007B68002B03D1054B9847034602E0044B15
:102040009847034618460837BD4680BDE131400039
:10205000FD31400080B582B000AF0346FB71FB79D3
:10206000033B042B08D8FB791846064B9847FB79AD
:102070001846054B984700E000BF00BF0837BD4633
:1020800080BD00BFE51D4000511F400080B582B0FB
:1020900000AF786000BF7868044B98470346002B78
:1020A000F9D0002318460837BD4680BD29204000DE
:1020B00080B500AF0620054B9847024613469B00AB
:1020C00013449A001344184680BD00BFDD1E400033
:1020D00080B500AF024B98470346184680BD00BF4D
:1020E000B120400090B583B000AF1348134B984720
:1020F0000620134B9847381D192301220621114C45
:10210000A0473B1D002118460F4B984700200F4B5E
:10211000984702200E4B984700200E4B98470E4BD5
:1021200098470E4B984703461846044B984700BF04
:102130000C37BD4690BD00BF000E27074539400053
:10214000552040007D1F4000E91F40008D204000C9
:10215000552F4000D12F4000DD374000D1204000F6
:1021600080B400AFBFF34F8FBFF36F8F094B0022D6
:10217000C3F85022074A074B5B6943F400335361AD
:10218000BFF34F8FBFF36F8F00BFBD465DF8047B79
:10219000704700BF00ED00E080B48BB000AF264B6D
:1021A000D3F88030FB61FB695B0BC3F30E037B62EA
:1021B000FB6903F007030433BB61FB69DB08C3F36E
:1021C00009037B617B69BB60BB68B3FA83F37B6007
:1021D0007B68DBB203F01F033B61BFF34F8F7B696A
:1021E0003B623A6A3B6902FA03F319467A6ABB69B1
:1021F00002FA03F30B43FB600F4AFB68C2F860323C
:102200003B6A5A1E3A62002BEBD17B6A5A1E7A62F5
:10221000002BE4D1BFF34F8F074A074B5B6943F4B0
:1022200080335361BFF34F8FBFF36F8F00BF2C37E5
:10223000BD465DF8047B704700ED00E080B582B0DC
:1022400000AF78607868034B984700BF0837BD46F9
:1022500080BD00BF1932400080B500AF0A20084B96
:1022600098470B20064B98470C20054B98471020A9
:10227000034B98471120024B984700BF80BD00BF19
:102280003D22400080B48DB000AF786039607B683B
:10229000FB623B68BB62FB6A7B627B6A5A09FB6A32
:1022A0003B623B6A03F01F03012101FA03F3FA6169
:1022B000BB61BB6A7B61FB693B613A69374B134485
:1022C0005B02FB607B6903F00803002B03D0FB6813
:1022D000BA695A6602E0FB68BA691A667B6903F05C
:1022E0001003002B04D0FB68BA69C3F8942003E004
:1022F000FB68BA69C3F890207B6903F02003002BC8
:1023000003D0FB68BA691A6502E0FB68BA695A65CE
:102310007B6903F0C003002B03D0FB68BA691A6223
:1023200002E0FB68BA695A627B6903F08003002B04
:1023300004D0FB68BA69C3F8842003E0FB68BA697B
:10234000C3F880207B6903F00103002B06D0FB68F3
:102350001A6FBB691A43FB681A6706E0FB681A6FBD
:10236000BB69DB431A40FB681A677B6903F0020311
:10237000002B06D0FB685A6FBB691A43FB685A678B
:1023800006E0FB685A6FBB69DB431A40FB685A677B
:1023900000BF3437BD465DF8047B70470707200057
:1023A00080B48DB000AF78600B46FB707B68FB6239
:1023B000FB7887F82B30FB6A7B627B6A3B623B6A67
:1023C0005B09FB61FA69174B13445B02BB6197F829
:1023D0002B30012B09D1FB6A7B617B6903F01F0362
:1023E00001229A40BB691A610CE097F82B30002B50
:1023F00008D1FB6A3B613B6903F01F0301229A404D
:10240000BB695A61FB6AFB60FB6803F01F03012292
:102410009A40BB69C3F8A02000BF3437BD465DF8C1
:10242000047B70470707200080B48BB000AF786052
:102430000B46FB707B687B62FB7887F823307B6AF6
:10244000FB61FB69BB61BB695B097B617A69104B0E
:1024500013445B023B6197F82330002B09D07B6A61
:10246000FB60FB6803F01F0301229A403B691A637B
:1024700008E07B6ABB60BB6803F01F0301229A403F
:102480003B695A6300BF2C37BD465DF8047B70473B
:102490000707200080B48DB000AF78600B46FB705A
:1024A0007B68FB62FB7887F82B30FB6A7B627B6A78
:1024B0005A09FB6A3B623B6A03F01F03012101FAE0
:1024C00003F3FA61BB6197F82B30FB75FB693B6145
:1024D0003A69234B13445B02FB60FB7D013B032BFA
:1024E0002ED801A252F823F01D2540002F254000D0
:1024F000F92440000B254000FB68BA69C3F8C420EA
:10250000FB68BA69C3F8D0201FE0FB68BA69C3F85A
:10251000C420FB68BA69C3F8D42016E0FB68BA6926
:10252000C3F8C020FB68BA69C3F8D0200DE0FB688F
:10253000BA69C3F8C020FB68BA69C3F8D42004E0C4
:10254000FB68BA69C3F8B42003E0FB68BA69C3F852
:10255000B02000BF3437BD465DF8047B704700BF34
:102560000707200080B400AFBFF34F8FBFF36F8F1A
:102570000C4A0C4BD3F8903223F00103C2F890328E
:10258000084A084BD3F8943223F00103C2F894327E
:10259000BFF34F8FBFF36F8F00BFBD465DF8047B65
:1025A000704700BF00ED00E098B500AF4C4B4FF412
:1025B00000425A604B4B98474B4B98474B4B4C4A09
:1025C0005A604A4B4B4A5A604B4B98474B4B984783
:1025D000012148204A4B984701214820494B984700
:1025E00000210B20464B984788210B20464B9847EB
:1025F00002210B20454B984700234FF400524FF027
:1026000060514348434CA04700234FF080424FF0B5
:1026100060513F483F4CA0470123FF224FF000612B
:102620003B483C4CA04701233F224FF000613A4811
:10263000384CA04701234FF4C0324FF000613748B7
:10264000344CA04701234FF480724FF000613048B2
:10265000304CA04701234FF400624FF000612C483A
:102660002C4CA04701234FF400224FF000612C486E
:10267000284CA04700234FF400724FF080512448AB
:10268000244CA0474FF400712148264B98474FF047
:1026900080517420244B98474FF080517520224B75
:1026A00098474FF0805176201F4B98474FF080514C
:1026B0007B201D4B98474FF0605118201A4B9847CC
:1026C0004FF060510620184B98474FF0605153204F
:1026D000154B98475320154B984700BF98BD00BF36
:1026E00050180E406121400099214000000C0E401E
:1026F0000C08005A0C07005A65254000592240007A
:10270000A123400029244000852240009524400058
:1027100000120E408929400000160E40000E0E40A7
:1027200000140E405D274000B12B4000512B4000AB
:1027300080B485B000AFF860B9607A607B68002B28
:1027400003D0FB68BA685A6602E0FB68BA681A668A
:1027500000BF1437BD465DF8047B704780B483B07A
:1027600000AF786039607B683A681A6300BF0C3745
:10277000BD465DF8047B704780B483B000AF7860DD
:1027800039607B683A685A6300BF0C37BD465DF814
:10279000047B704780B487B000AFF860B9607A609E
:1027A000FB687A685A64BB68B3F1C05F4AD0B3F182
:1027B000C05F08D8B3F1006F16D0B3F1805F2CD0A2
:1027C000002B69D064E0B3F1205F65D0B3F1205FE6
:1027D00003D8B3F1005F4AD05AE0B3F1405F5BD059
:1027E000B3F1605F58D053E0FB681B6F7B61FB68FF
:1027F0001A6F7B68D9437B690B401A40FB681A67E4
:10280000FB685B6F7B61FB685A6F7B68D9437B69B0
:102810000B401A40FB685A673AE0FB681B6F7B610C
:102820007A687B691A43FB681A67FB685B6F7B6198
:10283000FB685A6F7B68D9437B690B401A40FB6881
:102840005A6725E0FB681B6F7B61FB681A6F7B682A
:10285000D9437B690B401A40FB681A67FB685B6FC2
:102860007B617A687B691A43FB685A6710E0FB68F2
:102870001B6F7B617A687B691A43FB681A67FB6888
:102880005B6F7B617A687B691A43FB685A6700BF9C
:10289000FB687A685A6000E000BF1C37BD465DF8EF
:1028A000047B704780B584B000AFF860B9607A608F
:1028B000B968F868194B98477B6803F001031A461A
:1028C000B968F868164B98477B6803F00A03002B39
:1028D00003D0FB68BA681A6202E0FB68BA685A6201
:1028E0007B6803F00203002B04D0FB68BA68C3F8CE
:1028F000802008E07B6803F00803002B03D0FB680E
:10290000BA68C3F88420FB68BA685A61FB68BA6881
:102910001A6000BF1037BD4680BD00BF052B4000C8
:102920003127400080B584B000AFF860B9607A60AC
:102930003B60B968F868124B9847BA69B968F8689B
:10294000104B98473B68002B03D0FB68BA681A65A8
:1029500002E0FB68BA685A657B68002B03D0FB680D
:10296000BA681A6302E0FB68BA685A63FB68BA681F
:102970001A61FB68BA681A6000BF1037BD4680BD97
:10298000052B40003127400090B587B002AFF860BA
:10299000B9607A603B60BB68B3F1005F16D0B3F1F9
:1029A000005F09D8B3F1805F10D0B3F1C05F0DD0E4
:1029B000B3F1006F0AD03DE0B3F1405F1AD0B3F13C
:1029C000605F17D0B3F1205F0ED033E07A68B9684A
:1029D000F8681C4B98473B6803F001031A46796876
:1029E000F868194B984727E03A687968F868174BF8
:1029F000984721E0BB68B3F1605F0CBF012300235F
:102A0000DBB21A463B6803F00403002B14BF01231A
:102A10000023DBB219463B6803F00103002B14BF0F
:102A200001230023DBB200930B467968F868084C59
:102A3000A04701E0002300E0012318461437BD46FB
:102A400090BD00BF9527400031274000A5284000D9
:102A50002529400080B483B000AF786039607B687E
:102A60009A6B3B681340002B01D1002300E0012347
:102A700018460C37BD465DF8047B704780B485B0BE
:102A800000AFF860B9607A607B6803F01003002B38
:102A900020D0FB68BA68C3F8B0207B6803F020033D
:102AA000002B04D0FB68BA68C3F8D42003E0FB68AD
:102AB000BA68C3F8D0207B6803F04003002B04D031
:102AC000FB68BA68C3F8C02008E0FB68BA68C3F8BE
:102AD000C42003E0FB68BA68C3F8B42000BF143711
:102AE000BD465DF8047B704780B483B000AF78606A
:102AF00039607B683A681A6400BF0C37BD465DF8E0
:102B0000047B704780B483B000AF786039607B6825
:102B10003A685A6400BF0C37BD465DF8047B7047C5
:102B200080B483B000AF78607B68DB6C18460C37EC
:102B3000BD465DF8047B704780B483B000AF786019
:102B40007B689B6C18460C37BD465DF8047B70476C
:102B500080B584B000AF78607868084B9847F8601B
:102B60007B6803F01F03012202FA03F31A46FB6895
:102B70001A6300BF1037BD4680BD00BF612D400005
:102B800080B584B000AF78607868084B9847F860EB
:102B90007B6803F01F03012202FA03F31A46FB6865
:102BA0005A6300BF1037BD4680BD00BF612D400095
:102BB00090B587B002AF786039607868634B98470A
:102BC000F8603B6803F0F043B3F1005F67D0B3F106
:102BD000005F09D8B3F1805F2BD0B3F1C05F43D061
:102BE000B3F1006F0AD0A9E0B3F1405F7ED0B3F13A
:102BF000605F7BD0B3F1205F6CD09FE07B6803F017
:102C00001F03012202FA03F31A464FF00061F8682D
:102C10004F4B98477B6803F01F03012202FA03F32E
:102C200019463B6803F001031A46F868494B984778
:102C300086E07B6803F01F03012202FA03F31A46C1
:102C40004FF08051F868424B98477B6803F01F03B0
:102C5000012202FA03F319463B6803F001031A4606
:102C6000F8683C4B98476BE07B6803F01F03012238
:102C700002FA03F31A464FF0C051F868344B9847F4
:102C80007B6803F01F03012202FA03F319463B6835
:102C900003F001031A46F8682E4B984750E07B6812
:102CA00003F01F03012202FA03F31A464FF000510A
:102CB000F868274B98477B6803F01F03012202FA4C
:102CC00003F319463B6803F001031A46F868214BE9
:102CD000984735E07B6803F01F03012202FA03F3F3
:102CE0003A681946F8681C4B984729E07B6803F05E
:102CF0001F03012202FA03F319463B6803F06053F5
:102D0000B3F1605F0CBF01230023DBB21A463B68BE
:102D100003F00403002B14BF01230023DBB2184689
:102D20003B6803F00103002B14BF01230023DBB237
:102D300000930346F868094CA04701E0002300E037
:102D4000012318461437BD4690BD00BF612D4000D9
:102D50009527400031274000A52840002529400044
:102D600080B485B000AF78607B685A09054B134486
:102D70005B02FB60FB6818461437BD465DF8047BB8
:102D8000704700BF0707200080B584B000AF7860AF
:102D900039607868264B9847F8607868254B9847E3
:102DA0000246FB681340FB60FB68002B3CD000230D
:102DB000BB6034E0204ABB681B0113441A683B68BF
:102DC0009A4226D11C4ABB681B01134404331A687B
:102DD000FB681340002B1CD0174ABB681B0113442F
:102DE0000C331B681449BA6812010A44106812496E
:102DF000BA6812010A4404321268114698470E4A12
:102E0000BB681B01134404331B68DB43FA6813409F
:102E1000FB60BB680133BB60BB68062B03D8FB6853
:102E2000002BC7D100E000BF00BF1037BD4680BDFA
:102E3000212B4000392B4000B00D402080B586B0DA
:102E400000AFF860B9607A603B60214B1B68062BCD
:102E500001D9012338E00023FB7511E0FB7D1B0144
:102E60001C4A13443B613B691A68BB689A4204D10F
:102E70003B695A687B689A4208D0FB7D0133FB7539
:102E8000FA7D134B1B689A42E8D900E000BF3B690A
:102E9000BA681A603B697A685A603B693A689A6016
:102EA0003B693A6ADA60FA7D094B1B6801339A4242
:102EB00004D1074B1B680133054A13603A687968EF
:102EC000F868054B9847002318461837BD4680BD63
:102ED000200E4020B00D40207D2A400080B500AF7C
:102EE0000A210248024B984700BF80BD000E0E40E9
:102EF000892D400080B500AF0B210248024B984756
:102F000000BF80BD00100E40892D400080B500AF8D
:102F10000C210248024B984700BF80BD00120E40B2
:102F2000892D400080B500AF10210248024B984720
:102F300000BF80BD00140E40892D400080B500AF59
:102F400011210248024B984700BF80BD00160E4079
:102F5000892D400080B483B000AF78607B68013B6E
:102F6000032B1AD801A252F823F000BF7D2F400096
:102F7000832F40008B2F4000932F400000237B6065
:102F80000EE04FF480737B600AE04FF440737B6087
:102F900006E04FF400737B6002E000237B6000BF1B
:102FA0000A490A4B1B6B23F440727B6813430B6383
:102FB00000BF064B9B6E03F00803002BF9D000BF47
:102FC0000C37BD465DF8047B704700BF00060E401D
:102FD00080B485B000AF78601D491D4B1B6B23F09A
:102FE00070027B6813430B634FF48053FB6007E070
:102FF000FB68002B01D1012323E0FB68013BFB6050
:10300000134B9B6E03F00803002BF1D0104A104BBA
:103010001B6B23F0030343F0020313634FF480534D
:10302000FB6007E0FB68002B01D1012309E0FB688E
:10303000013BFB60064B9B6E03F00803002BF1D0B5
:10304000002318461437BD465DF8047B704700BF67
:1030500000060E4080B483B000AF78607B68012B1F
:1030600005D10749064B9A68064B13438B60044B06
:10307000054A1A6000BF0C37BD465DF8047B7047F7
:1030800010180E40000010A5080000A580B400AF85
:10309000094B5B6903F08003002B07D0074B9B6E45
:1030A00003F08003002B01D0012300E00023184629
:1030B000BD465DF8047B704710180E4000060E40B8
:1030C00080B483B000AF78601549154B1A6A154B70
:1030D00013430B6200BF124B9B6E03F40033002BB3
:1030E000F9D00F490E4B1A6A0F4B13407A681343FD
:1030F00043F45C130B6200BF094B9B6E03F4003377
:10310000002BF9D00649064B1A6A084B134043F4CA
:103110005C130B6200BF0C37BD465DF8047B704743
:1031200000060E40080037008FFFC8FFFFFFC8FEF3
:1031300080B483B000AF786039607B68002B08D022
:103140001349134B1B6A134A1A40134B13430B6268
:1031500018E00F490E4B1A6A104B13403A681202DE
:1031600092B21A430E4B13430B6200BF084B9B6E87
:1031700003F00103002BF9D00549054B1A6A094BEE
:1031800013430B6200BF0C37BD465DF8047B7047EC
:1031900000060E40FCFFC8FE02003701FCFFC8FF1E
:1031A000010037000000370180B400AF044B9B6E74
:1031B00003F480331846BD465DF8047B704700BFBA
:1031C00000060E4080B400AF044B4FF000529A62EC
:1031D00000BFBD465DF8047B704700BF00060E408F
:1031E00080B400AF044B9B6E03F002031846BD464B
:1031F0005DF8047B704700BF00060E4080B400AF4E
:10320000044B9B6E03F040031846BD465DF8047BFB
:10321000704700BF00060E4080B485B000AF7860F4
:103220000B4A7B6803F07F03C2F80C31084BD3F8DC
:103230000C3143F01023FB60054AFB68C2F80C31E7
:10324000002318461437BD465DF8047B704700BF65
:1032500000060E4080B483B000AF7860044A7B68FB
:10326000136000BF0C37BD465DF8047B704700BF9C
:103270000400402080B483B000AF204B1B6F7B6004
:103280007B6823F4C0037B607B6843F480037B602E
:103290001A4A7B6813671949184B1A6A184B13436B
:1032A0000B6200BF154B9B6E03F00803002BF9D097
:1032B00000237B6003E000BF7B6801337B607B6899
:1032C000B3F5FA7FF7D300BF0C4B1B6A03F008037A
:1032D000002BF9D0094B1B6F7B607B6823F4C00384
:1032E0007B607B6843F480037B60044A7B681367E0
:1032F00000BF0C37BD465DF8047B704700060E40EA
:103300000400370090B599B000AF78607B68013B4E
:10331000042B00F2A58101A252F823F031334000C2
:103320003133400051334000513340003F364000BC
:10333000724A724B1B6923F004031361704B012224
:103340001A70BFF35F8F62B6BFF34F8F30BF87E154
:103350007B68032B03D100206A4B984703E04FF4AE
:103360000010684B984772B6BFF35F8F644B002222
:103370001A70654B01221A707B68042B0CBF012365
:103380000023DAB207F11C033B6407F11803FB6367
:1033900007F11403BB6307F110037B6307F10C0310
:1033A0003B63134687F82F30584B1B6ABB62574B61
:1033B0001B6B7B62564B1B683B623B6C002B02D045
:1033C0003B6CBA6A1A60FB6B002B03D04F4B9A6AB6
:1033D000FB6B1A60BB6B002B02D0BB6B00221A6028
:1033E0007B6B002B02D07B6B7A6A1A603B6B002BE5
:1033F00002D03B6B3A6A1A604449BA6A454B1343A0
:103400000B627B6A03F00303012B0ED97B6A23F066
:10341000030343F001037B623C4A7B6A13633B4B2B
:103420009B6E03F00803002BF9D07B6A03F0700356
:10343000002B0CD07B6A23F070037B62334A7B6ADB
:103440001363324B9B6E03F00803002BF9D0324B11
:1034500098472E4B9B6E03F40033002BF9D02B4979
:103460002A4B1A6A2D4B134043F45C130B62274B13
:103470009B6E03F48033002BF9D0254A3B6A23F47A
:103480007063136097F82F30002B07D01F491F4B34
:103490001A6A234B134043F45C130B62184B01224E
:1034A0001A70BFF35F8F62B61E4B984772B6BFF3B8
:1034B0005F8F134B00221A70FC69B86979693A6909
:1034C000FB68FC65B86579653A65FB640023BB64FD
:1034D000FB6D03F00203002B2CD00C490B4B1B6A35
:1034E000114A1A40114B13430B620849074B1A6AE1
:1034F0000F4B134043F45C130B624EE000ED00E011
:103500000000402055324000240E402000060E40AE
:10351000000C0E4008003700C5314000FFFFC8FE18
:10352000FEFFC8FF75324000FCFFC8FE02003701F5
:1035300087FFC8FFFB6D03F00103002B2DD04A4B22
:103540001B6A03F00103002B0DD14749464B1B6A50
:10355000464A1A40464B13430B62434B9B6E03F0A3
:103560000103002BF9D0404B1B6A03F08073002B42
:103570000BD13D493C4B1A6A3E4B13430B623A4B0D
:103580009B6E03F48033002BF9D03749364B1A6A0F
:10359000394B134043F45C130B62BA6D374B134045
:1035A000002B08D0304ABB6D43F000539362BB6CD4
:1035B00043F00203BB643B6D03F00303022B05D110
:1035C000294B9B6E03F00203002BF9D0264B1B6B9B
:1035D0007B6425497B6C23F070023B6D03F0700324
:1035E00013430B63204B9B6E03F00803002BF9D0B1
:1035F000234AFB6C13601C4A3B6D13631A4B9B6E92
:1036000003F00803002BF9D0174B9A6EBB6C1340E4
:10361000002BF9D01B4B00221A701B4B1B68002B90
:1036200005D0194B1B689847174B00221A60174B9F
:1036300001221A70BFF35F8F62B600BF10E0144A18
:10364000134B1B6943F004031361124B124A1A60B7
:103650000E4B01221A70BFF35F8F62B630BF00BFFE
:1036600000BF6437BD4690BD00060E40FCFFC8FF9A
:10367000010037000000370187FFC8FF0000FF0787
:10368000000C0E40240E4020280E40200000402058
:1036900000ED00E010180E40040000A580B483B0D7
:1036A00000AFEFF310837B607B68002B0CBF01231E
:1036B0000023DBB23B6072B6BFF35F8F044B002286
:1036C0001A703B6818460C37BD465DF8047B70479E
:1036D0000000402080B483B000AF78607B68002B8E
:1036E00014BF01230023DBB218460C37BD465DF83A
:1036F000047B704780B582B000AF78607868074B74
:1037000098470346002B05D0054B01221A70BFF3E2
:103710005F8F62B600BF0837BD4680BDD53640001A
:103720000000402080B584B000AF1E4BFB601E4BF4
:10373000BB60FA68BB689A420CD007E0BB681A1DF0
:10374000BA60FA68111DF96012681A60BB68174AFE
:103750009342F3D3164BBB6004E0BB681A1DBA60FA
:1037600000221A60BB68134A9342F6D3124BFB60E7
:10377000124AFB6823F07F039360114B98477860EF
:10378000104A104B1B6843F470031360BFF34F8F54
:10379000BFF36F8F78680C4B98470C4B98470C4BD6
:1037A0009847FEE784D9440000004020B809402033
:1037B000B8094020240F40200000400000ED00E048
:1037C0009D36400088ED00E0F53640003142400073
:1037D000190A400080B400AFFEE7000080B400AFDB
:1037E000524B1B6B03F00303012B14D0012B02D3AC
:1037F000022B38D07AE04E4B5B6903F08003002B3C
:1038000004D04C4B4FF400421A606FE0494B4FF428
:10381000FA421A606AE0454B1B6A03F08073002B82
:1038200003D0444B444A1A6060E0424B434A1A605A
:103830003E4B1B6A03F07003102B04D0202B08D0E2
:10384000002B0ED00EE03B4B1B685B00394A136027
:1038500008E0384B1A6813465B001344354A13607E
:1038600000E000BF42E0314B1B6A03F08073002B85
:1038700003D0304B304A1A601CE02E4B2F4A1A609E
:103880002A4B1B6A03F07003102B04D0202B08D0A6
:10389000002B0ED00EE0274B1B685B00254A1360FF
:1038A00008E0244B1A6813465B001344214A136056
:1038B00000E000BF1D4B1B6B03F00303022B14D170
:1038C0001A4B9B6A1B0CC3F30A030133194A126893
:1038D00002FB03F3174A1360144B9B6ADBB2154AD1
:1038E0001268B2FBF3F3134A136000BF0F4B1B6B5C
:1038F00003F07003702B08D10E4B1B68104AA2FB1B
:1039000003235B080B4A13600AE0084B1B6B1B097F
:1039100003F00703074A126822FA03F3054A13600B
:1039200000BFBD465DF8047B704700BF00060E4037
:1039300010180E4008004020001BB70000093D0091
:10394000ABAAAAAA80B483B000AF78607B681D4A96
:10395000934204D81C4B4FF080621A602BE07B68C6
:103960001A4A934203D8184B194A1A6023E07B681D
:10397000184A934203D8144B174A1A601BE07B681D
:10398000164A934203D8104B154A1A6013E07B681D
:10399000144A934204D80C4B4FF004221A600AE0F8
:1039A0007B68114A934203D8074B104A1A6002E021
:1039B000054B0F4A1A6000BF0C37BD465DF8047B0B
:1039C000704700BFBFF35E01000C0E407FE7BD02F1
:1039D000000100043FDB1C0400020004FFCE7B0555
:1039E00000030004BFC2DA067FB6390800050004F0
:1039F0000006000480B485B000AF7860104BFB6017
:103A0000104B1B68002B02D10E4B0F4A1A600D4B56
:103A10001B68BB60BA687B681A44FB689A4202DD87
:103A20004FF0FF3306E0074B1A687B681344054AE2
:103A30001360BB6818461437BD465DF8047B7047B9
:103A4000FCFF45202C0E40202831402081F0004111
:103A500002E000BF83F0004330B54FEA41044FEA73
:103A6000430594EA050F08BF90EA020F1FBF54EA0E
:103A7000000C55EA020C7FEA645C7FEA655C00F0AA
:103A8000E2804FEA5454D4EB5555B8BF6D420CDD7B
:103A90002C4480EA020281EA030382EA000083EAFE
:103AA000010180EA020281EA0303362D88BF30BD9E
:103AB00011F0004F4FEA01314FF4801C4CEA1131F4
:103AC00002D0404261EB410113F0004F4FEA033353
:103AD0004CEA133302D0524263EB430394EA050FDE
:103AE00000F0A780A4F10104D5F1200E0DDB02FA4D
:103AF0000EFC22FA05F2801841F1000103FA0EF2E1
:103B0000801843FA05F359410EE0A5F120050EF1A6
:103B1000200E012A03FA0EFC28BF4CF0020C43FAD7
:103B200005F3C01851EBE37101F0004507D54FF0E4
:103B3000000EDCF1000C7EEB00006EEB0101B1F534
:103B4000801F1BD3B1F5001F0CD349085FEA30007A
:103B50004FEA3C0C04F101044FEA445212F5800F85
:103B600080F09A80BCF1004F08BF5FEA500C50F122
:103B7000000041EB045141EA050130BD5FEA4C0C05
:103B8000404141EB010111F4801FA4F10104E9D18E
:103B900091F0000F04BF01460020B1FA81F308BF85
:103BA0002033A3F10B03B3F120020CDA0C3208DD51
:103BB00002F1140CC2F10C0201FA0CF021FA02F12C
:103BC0000CE002F11402D8BFC2F1200C01FA02F19C
:103BD00020FA0CFCDCBF41EA0C019040E41AA2BFC1
:103BE00001EB0451294330BD6FEA04041F3C1CDA89
:103BF0000C340EDC04F11404C4F1200220FA04F0A9
:103C000001FA02F340EA030021FA04F345EA030152
:103C100030BDC4F10C04C4F1200220FA02F001FA14
:103C200004F340EA0300294630BD21FA04F0294696
:103C300030BD94F0000F83F4801306BF81F480112F
:103C40000134013D4EE77FEA645C18BF7FEA655CA2
:103C500029D094EA050F08BF90EA020F05D054EA74
:103C6000000C04BF1946104630BD91EA030F1EBF79
:103C70000021002030BD5FEA545C05D1400049417D
:103C800028BF41F0004130BD14F580043CBF01F570
:103C9000801130BD01F0004545F0FE4141F4700156
:103CA0004FF0000030BD7FEA645C1ABF1946104631
:103CB0007FEA655C1CBF0B46024650EA013406BF32
:103CC00052EA033591EA030F41F4002130BD00BFF1
:103CD00090F0000F04BF0021704730B54FF48064AE
:103CE00004F132044FF000054FF0000150E700BF2F
:103CF00090F0000F04BF0021704730B54FF480648E
:103D000004F1320410F0004548BF40424FF000017A
:103D10003EE700BF42004FEAE2014FEA31014FEABD
:103D200002701FBF12F07F4393F07F4F81F060510C
:103D3000704792F0000F14BF93F07F4F704730B57B
:103D40004FF4607401F0004521F0004120E700BF0E
:103D500050EA010208BF704730B54FF000050AE095
:103D600050EA010208BF704730B511F0004502D596
:103D7000404261EB41014FF4806404F132045FEA98
:103D8000915C3FF4DCAE4FF003025FEADC0C18BF3D
:103D900003325FEADC0C18BF033202EBDC02C2F133
:103DA000200300FA03FC20FA02F001FA03FE40EAC5
:103DB0000E0021FA02F11444C1E600BF70B54FF0C5
:103DC000FF0C4CF4E06C1CEA11541DBF1CEA1355A7
:103DD00094EA0C0F95EA0C0F00F0DEF82C4481EA0F
:103DE000030621EA4C5123EA4C5350EA013518BF2F
:103DF00052EA033541F4801143F4801338D0A0FB1C
:103E000002CE4FF00005E1FB02E506F00042E0FBC8
:103E100003E54FF00006E1FB03569CF0000F18BFCE
:103E20004EF0010EA4F1FF04B6F5007F64F5407476
:103E300004D25FEA4E0E6D4146EB060642EAC62109
:103E400041EA55514FEAC52040EA5E504FEACE2E76
:103E5000B4F1FD0C88BFBCF5E06F1ED8BEF1004F79
:103E600008BF5FEA500E50F1000041EB045170BDF5
:103E700006F0004646EA010140EA020081EA030139
:103E8000B4EB5C04C2BFD4EB0C0541EA045170BD35
:103E900041F480114FF0000E013C00F3AB8014F1AF
:103EA000360FDEBF002001F0004170BDC4F10004F8
:103EB000203C35DA0C341BDC04F11404C4F1200579
:103EC00000FA05F320FA04F001FA05F240EA0200D4
:103ED00001F0004221F0004110EBD37021FA04F60A
:103EE00042EB06015EEA430E08BF20EAD37070BDC4
:103EF000C4F10C04C4F1200500FA04F320FA05F023
:103F000001FA04F240EA020001F0004110EBD37024
:103F100041F100015EEA430E08BF20EAD37070BD94
:103F2000C4F1200500FA05F24EEA020E20FA04F36D
:103F300001FA05F243EA020321FA04F001F000411C
:103F400021FA04F220EA020000EBD3705EEA430E8D
:103F500008BF20EAD37070BD94F0000F0FD101F0BC
:103F60000046400041EB010111F4801F08BF013CF5
:103F7000F7D041EA060195F0000F18BF704703F033
:103F80000046520043EB030313F4801F08BF013DBA
:103F9000F7D043EA0603704794EA0C0F0CEA135576
:103FA00018BF95EA0C0F0CD050EA410618BF52EA30
:103FB0004306D1D181EA030101F000414FF0000036
:103FC00070BD50EA410606BF1046194652EA430644
:103FD00019D094EA0C0F02D150EA013613D195EAB8
:103FE0000C0F05D152EA03361CBF104619460AD100
:103FF00081EA030101F0004141F0FE4141F470010A
:104000004FF0000070BD41F0FE4141F4780170BDF9
:1040100070B54FF0FF0C4CF4E06C1CEA11541DBF5E
:104020001CEA135594EA0C0F95EA0C0F00F0A7F860
:10403000A4EB050481EA030E52EA03354FEA01318D
:1040400000F088804FEA03334FF0805545EA1313A0
:1040500043EA12634FEA022245EA111545EA106568
:104060004FEA00260EF000419D4208BF964244F1FF
:10407000FD0404F5407402D25B084FEA3202B61A1E
:1040800065EB03055B084FEA32024FF480104FF4F2
:10409000002CB6EB020E75EB030E22BFB61A754666
:1040A00040EA0C005B084FEA3202B6EB020E75EBF9
:1040B000030E22BFB61A754640EA5C005B084FEA61
:1040C0003202B6EB020E75EB030E22BFB61A75462E
:1040D00040EA9C005B084FEA3202B6EB020E75EB39
:1040E000030E22BFB61A754640EADC0055EA060EFA
:1040F00018D04FEA051545EA16754FEA06164FEA3D
:10410000C30343EA52734FEAC2025FEA1C1CC0D1E8
:1041100011F4801F0BD141EA00014FF000004FF075
:10412000004CB6E711F4801F04BF01430020B4F136
:10413000FD0C88BFBCF5E06F3FF6AFAEB5EB030CEE
:1041400004BFB6EB020C5FEA500C50F1000041EBEB
:10415000045170BD0EF0004E4EEA113114EB5C04B8
:10416000C2BFD4EB0C0541EA045170BD41F480118B
:104170004FF0000E013C90E645EA060E8DE60CEA93
:10418000135594EA0C0F08BF95EA0C0F3FF43BAFB0
:1041900094EA0C0F0AD150EA01347FF434AF95EA67
:1041A0000C0F7FF425AF104619462CE795EA0C0F4B
:1041B00006D152EA03353FF4FDAE1046194622E718
:1041C00050EA410618BF52EA43067FF4C5AE50EAF2
:1041D00041047FF40DAF52EA43057FF4EBAE12E7E2
:1041E0004FEA410212F5001215D211D56FF478731F
:1041F000B3EB625212D94FEAC12343F0004343EAC2
:10420000505311F0004F23FA02F018BF404270479C
:104210004FF00000704750EA013005D111F0004026
:1042200008BF6FF0004070474FF00000704700BFBC
:1042300070B50F4E0F4D761BB61018BF002405D079
:10424000013455F8043B9847A642F9D10A4E0B4D6C
:10425000761B49F081FBB61018BF002406D001344C
:1042600055F8043B9847A642F9D170BD70BD00BF18
:1042700064D9440064D944006CD9440064D9440032
:1042800070B4860746D0541E002A41D0CAB20346F5
:1042900002E014F1FF343BD303F8012B9D07F8D162
:1042A000032C2ED9CDB245EA05250F2C45EA05454C
:1042B00019D903F110022646103E0F2E42F8105C69
:1042C00042F80C5C42F8085C42F8045C02F110020F
:1042D000F2D8A4F1100222F00F0204F00F04103201
:1042E000032C13440DD91E462246043A032A46F8ED
:1042F000045BFAD8221F22F003020432134404F0B4
:1043000003042CB1C9B21C4403F8011B9C42FBD12D
:1043100070BC704714460346C2E700BF0EB4F0B548
:104320009CB021AB0F4953F8042B019305466FF065
:104330000044086802954FF402774FF6FF7602A911
:104340000695ADF8147004940794ADF8166000F06B
:104350000BF8029B00221A701CB0BDE8F04003B0BD
:10436000704700BF0C0040202DE9F04FC3B00C4651
:104370000B9192460F930C9002F00EFA03681A9379
:10438000184603F0DDF8A3891990190603D52369AF
:10439000002B01F0038000230DF1C809139315933E
:1043A00014932793269318931B930993CDF8949015
:1043B000C846169317939AF800305446E3B1252B5C
:1043C00002D119E0252B03D014F8013F002BF9D1BD
:1043D000A4EB0A0585B1269B279AC8F800A00133F3
:1043E0002A44072BC8F80450279226937FDC08F153
:1043F0000808099B2B4409932378002B7FD00023C6
:104400001A468DF8773019460D939B464FF0FF30D2
:1044100063780A9004F1010A0AF1010AA3F120006D
:10442000582800F2C183DFE810F03802BF03BF0351
:104430004002BF03BF03BF03BF03BF03BF03450267
:104440000302BF035D006B02BF0386029D039D0351
:104450009D039D039D039D039D039D039D03BF033A
:10446000BF03BF03BF03BF03BF03BF03BF03BF033C
:10447000BF0337035703BF035703BF03BF03BF0384
:10448000BF039803BF03BF03AD03BF03BF03BF0355
:10449000BF03BF035902BF03BF031E03BF03BF0314
:1044A000BF03BF03BF03BF03BF03BF03BF03BF03FC
:1044B000C602DB025703570357038B02DB02BF031D
:1044C000BF039002BF039D02CC01B4020802BF03E8
:1044D000E101BF037E00BF03BF030D020D980F93E0
:1044E00040420D904BF0040B9AF8003094E725AA57
:1044F0000B990C9803F092F840B9C84679E7279BCE
:1045000023B10C980B9925AA03F088F80B9B9B8983
:1045100013F0400F099B18BF4FF0FF330993099820
:1045200043B0BDE8F08F1BF0200F119340F0DD8108
:104530000F9A1BF0100F134640F06E851BF0400FD2
:1045400000F06A8514880432002501230F920027A9
:104550008DF877700A994A1C00F065822BF0800272
:10456000079254EA050240F06482002940F03C843E
:10457000002B40F0D7841BF001030E9300F004865B
:1045800042AE302306F8413D0A9B0E9A9342B8BFD3
:10459000134608930023129317B1089B0133089325
:1045A000079B13F00203109302D0089B0233089379
:1045B000079B13F0840540F00E830D9B089AA3EB34
:1045C000020BBBF1000F40F30683BBF1100F279CD9
:1045D000269A29DD43462146A84610270C9C0B9DB0
:1045E00006E0ABF1100BBBF1100F03F1080318DD6F
:1045F0000132B74826921031072A279183E88100BB
:10460000EFDD25AA2946204603F008F800287FF4AC
:104610007DAFABF1100BBBF1100F2799269A4B46DB
:10462000E6DC45460C4698460132A94B26925C448E
:10463000072A279488E8080800F398849DF8777083
:1046400008F1080877B1269B013301340DF1770199
:104650000122072B2794269388E8060000F3DB83CA
:1046600008F10808109B6BB1269B013302341EA988
:104670000222072B2794269388E8060000F3D683AE
:1046800008F10808802D00F015830A9B0E9A9F1AE6
:10469000002F36DD102F269B8E4D27DD424621460A
:1046A000B0464FF0100B2E460C9C0B9D04E0103FC3
:1046B000102F02F1080215DD01331031072B27916D
:1046C000269382E84008F2DD25AA2946204602F01A
:1046D000A5FF00287FF41AAF103F102F2799269BC3
:1046E0004A46E9DC35460C464646904601333C4492
:1046F000072B2794269388E8A00000F3818308F114
:104700000808079BDF0500F16882269B0E99C8F810
:10471000006001330C44072B2794C8F8041026933B
:1047200000F34D8308F10808079B5B073AD50D9B02
:10473000089A9D1A002D35DD102D269B20DD1026B0
:104740000C9FDDF82CB004E0103D102D08F1080896
:1047500016DD01335E4A26931034072B279488E830
:104760004400F1DD25AA5946384602F057FF0028DB
:104770007FF4CCAE103D102D279C269BC846E8DC6C
:104780000133534A26932C44072B279488E82400AE
:1047900008DD25AA0B990C9802F040FF00287FF451
:1047A000B5AE279C099B0D9A08998A42ACBF9B180D
:1047B0005B180993002C40F00D8300232693C84614
:1047C000F9E511931BF0200340F0E3811BF0100288
:1047D00040F02E841BF0400300F02A840F9913460A
:1047E0000A4604320C880F920025B0E60F9A119306
:1047F000166800248DF87740151D002E00F0A7865E
:104800000A9A531C00F009862146304602F088FAC5
:10481000002800F0E186831B0E930A940F95CDF8D3
:104820001CB023EAE373089312949DF87770B3E603
:104830009AF8003001222B21EEE54BF0200B9AF87C
:104840000030E9E51193002A40F09587224B189338
:104850001BF0200F40F011810F9A1BF0100F134630
:1048600040F0E1831BF0400F00F0DD830433148837
:104870000F9300251BF0010F00F00C8154EA050393
:1048800000F0088130239DF844208DF878308DF8B1
:1048900079204BF0020B022359E69AF800300029E8
:1048A0007FF4BAAD01222021B6E54BF0010B9AF856
:1048B0000030B1E50F9C23680D931846002823466D
:1048C00003F10403FFF60AAE0F939AF80030A3E554
:1048D00014D7440024D74400F4D644004BF0100B06
:1048E0001BF0200F11933FF423AE0F9D073525F0E9
:1048F000070303F10802D3E900450F92012326E6DE
:104900009AF800302A2B0AF1010400F02787A3F15E
:1049100030000928A24600F2AD8600231C461AF892
:10492000013B04EB840400EB4404A3F130000928AC
:10493000F5D90A9472E54BF0800B9AF800306BE5DC
:104940004BF0400B9AF8003066E59AF800306C2B7B
:1049500003BF9AF801304BF0200B0AF1010A4BF02B
:10496000100B59E5002A40F011871BF0200F40F092
:10497000F9841BF0100F40F0AC841BF0400F00F0E6
:10498000A8840F9A136804320F92BDF824201A806D
:1049900011E50F99B34B0C6818933022782304313A
:1049A0008DF8793011934BF0020B0F9100258DF8A3
:1049B00078200223CBE50F9911930A688DF8A02087
:1049C00000230A461F468DF87730043201230893EE
:1049D000CDF81CB00A9712970F920E9328AEDFE520
:1049E0001193002A40F0EA861BF0200F5DD11BF0E6
:1049F000100F40F008831BF0400F00F004830F9964
:104A0000B1F900400431E51722462B460F91002AE8
:104A100073F1000358DB0A999DF877704A1C4FF038
:104A200001037FF49BAD54EA050200F0DF81CDF86D
:104A30001CB0012B00F07B82022B40F006821898FC
:104A40004E46230904F00F0143EA05732A091C4668
:104A50001546435C06F8013D54EA0503F1D1A9EB84
:104A600006030E9390E51193002A40F0A3867E4B37
:104A700018931BF0200F3FF4EFAE0F9D073525F084
:104A8000070303F108021BF0010F0F92D3E9004561
:104A90007FF4F4AE02235AE51193002A40F0868693
:104AA0004BF0100B1BF0200FA1D00F9D073525F008
:104AB0000705D5E90023002A05F108011D4673F119
:104AC00000030F911446A6DA2D27644265EB4505D5
:104AD0008DF8777001233DE51193002A40F062863E
:104AE0000F9D073525F0070303F108020F921A689E
:104AF00015925B681493149B159D23F0004428467F
:104B000021464FF0FF32594B03F084FA002840F061
:104B10004A83284621464FF0FF32544B03F05CFA9B
:104B2000002840F0408315A80DC8149903F04AFAF4
:104B3000002840F030859DF877704D4E4D4B2BF09E
:104B40008000079011980322002108920A914728BB
:104B5000D8BF1E460E9212911EE54BF0080B9AF834
:104B6000003059E4A3F1300000231C461AF8013B41
:104B700004EB840400EB4404A3F130000928F5D9C8
:104B80000D944BE44BF0100B11931BF020033FF4FA
:104B90001DAE0F9D073525F0070303F10802D3E989
:104BA00000450F920023D2E41193002A40F0E785DC
:104BB000119A002A3FF4A3AC002301211F4608915B
:104BC0008DF8A020CDF81CB08DF877300A931293A1
:104BD0000E9128AEE4E4279C34E5119B652B40F34D
:104BE000A78015A80DC8149903F0E2F9002800F079
:104BF0005081269B204AC8F800200133013401224D
:104C0000072B27942693C8F8042000F36A8308F141
:104C100008081F9B139A279C934203DB079BDD0721
:104C20007FF582AD269B19991A9AC8F800200133A6
:104C30000C44072BC8F804102794269300F39E8396
:104C400008F10808139B5E1E002E7FF76DAD102E35
:104C5000269B0A4D40F3F58122461027DDF830B03F
:104C60000B9C13E0F4D64400E0D64400FFFFEF7F36
:104C7000D4D64400D0D6440010D7440024D74400F2
:104C800008F10808103E102E40F3DA81013310328B
:104C9000072B2792269388E8A000F1DD25AA21465C
:104CA000584602F0BBFC00287FF430AC279A269BC4
:104CB000C846E7E70D9B089A9F1A002F7FF7E5ACDF
:104CC000102F269BB64D27DD42462146B0464FF0B9
:104CD000100B2E460C9C0B9D04E0103F102F02F190
:104CE000080215DD01331031072B2791269382E846
:104CF0004008F2DD25AA2946204602F08FFC002854
:104D00007FF404AC103F102F2799269B4A46E9DC1C
:104D100035460C464646904601333C44072B2794C3
:104D2000269388E8A00000F3328208F10808ACE47A
:104D3000139B269F012B40F3FE8101370134012391
:104D4000072F27942697C8F80060C8F8043000F3AE
:104D5000038208F10808199A1A9BC8F80030013735
:104D60001444072F27942697C8F8042000F30082E4
:104D700008F1080815A80DC8149903F019F9139B38
:104D8000002840F00181013B013701361C44072F08
:104D900026972794C8F80060C8F8043000F32781EC
:104DA00008F108081B9AC8F804200137144421AB05
:104DB000072F27942697C8F800307FF7B3AC25AAB1
:104DC0000B990C9802F02AFC00287FF49FAB279CDB
:104DD000C846A9E425AA0B990C9802F01FFC0028EC
:104DE0003FF4EBACFFF792BBDDF81CB0012B00F0F9
:104DF0003481022B25D1CDF81CB0002400251EE6FD
:104E000025AA0B990C9802F009FC00287FF47EABD0
:104E1000279CC84675E425AA0B990C9802F0FEFB66
:104E200000287FF473AB279CC8461BE425AA0B9986
:104E30000C9802F0F3FB00287FF468AB279CC8466F
:104E400020E4CDF81CB000240025494600E031469E
:104E5000E20842EA4572E80804F0070305461446F2
:104E6000303354EA050201F8013C01F1FF36EED17E
:104E7000079AD2077FF5F3AD302B3FF4F0AD02393E
:104E8000302306F8013CA9EB01030E930E46FFF711
:104E90007BBB1F99002940F32E82129B139A9342E9
:104EA000A8BF1346002B1F460DDD269BC8F80060E7
:104EB00001333C44072B2794C8F80470269300F371
:104EC0001F8308F10808129B002FA8BFDB1B002BD3
:104ED0001F4640F3D680102F269B314D40F3ED81C5
:104EE00042462146B0464FF0100B2E460C9C0B9DBF
:104EF00004E00832103F102F40F3DB810133103102
:104F0000072B2791269382E84008F2DD25AA29463F
:104F1000204602F083FB00287FF4F8AA2799269BFD
:104F20004A46E7E70A9B0E934E46FFF72DBB002D3E
:104F300008BF0A2CC0F08F804E46204629460A2220
:104F4000002303F07DF8303206F8012D2046294673
:104F500000230A2203F074F804460D4654EA0503C0
:104F6000EBD1A9EB06030E93FFF70EBB25AA0B9915
:104F70000C9802F053FB00287FF4C8AA9DF87770C4
:104F8000279CC846FFF75EBB5E1E002E7FF70AAF68
:104F9000102E034D22DD22464FF0100B0C9C06E034
:104FA00024D74400103E102E08F1080815DD013703
:104FB0001032072F2792269788E82008F2DD25AACD
:104FC0000B99204602F02AFB00287FF49FAA103E8E
:104FD000102E279A269FC846E9DC14460137344430
:104FE000072F2794269788E860007FF7D9AE25AA77
:104FF0000B990C9802F012FB00287FF487AA279CDB
:10500000269FC846CEE60F9A146813460433E51768
:105010000F9322462B46FAE404321C680F920123B8
:105020000025FFF794BA1C6804330F93002521E490
:105030000F990A4604320C680F920025FFF787BAD1
:10504000144601333444072B2794269388E86000E4
:105050007FF768ABB3E6DDF81CB0CDF81CB042AE0C
:105060003034012306F8414D0E93FFF78DBA25AA7F
:105070000B990C9802F0D2FA00287FF447AA279CDB
:10508000C8461F9A139B9A4244DB079BD90741D419
:10509000139B12989A1A1D1A9542A8BF1546002D07
:1050A0000EDD2699C8F80450013106442C44072926
:1050B000C8F800602794269100F33B8208F10808A5
:1050C000002DACBF561B1646002E7FF72DAB102EC1
:1050D000269BB04DB5DD22461027DDF830B00B9C85
:1050E00004E008F10808103E102EA9DD013310324B
:1050F000072B2792269388E8A000F2DD25AA2146F7
:10510000584602F08BFA00287FF400AA279A269BC3
:10511000C846E8E7269B19981A99C8F80010013389
:105120000444072B2794C8F80400269300F3F58164
:1051300008F10808ACE7079BDA073FF5FEAD013739
:1051400001340123072F27942697C8F80060C8F878
:1051500004307FF725AE4AE725AA0B990C9802F098
:105160005DFA00287FF4D2A9279C269FC846F2E565
:1051700025AA0B990C9802F051FA00287FF4C6A9D1
:10518000279C269FC846F5E54E46FFF7FDB925AAA0
:105190000B990C9802F042FA00287FF4B7A9279CDB
:1051A000C846FFF772BA159C22462046149C234637
:1051B000214602F02FFF002840F086820A9B01332F
:1051C000119B23F020030E9300F0E281472B00F0A7
:1051D0001E814BF480730793149B1F1E159B08932D
:1051E000BBBF3B4603F1004700232D231093119BC7
:1051F000662B00F0BB81462B00F0DF800E9B089AE7
:10520000452B0CBF0A9B0A9D23A820A908BF5D1C43
:10521000049003911FA802213B4602900195009142
:105220000C9800F075FB119B672B064640F0E0815F
:105230001BF0010F00F046827419169A0898179B0C
:10524000394602F0B5FE002840F06581239BA34259
:1052500006D230215A1C23921970239B9C42F9D804
:105260009B1B13930E9B472B00F0E980119B652B32
:1052700040F3CD81119B662B1F9B129300F09E8102
:10528000139B129A1946914200F38A811BF0010F79
:1052900040F0138222EAE273089367230E9211937F
:1052A000109B002B40F0C4800A939DF87770FFF7A5
:1052B00073B935460C464646904601333C44072BAD
:1052C0002794269388E8A0003FF7D1AE08F108089C
:1052D000D7E60F9A136804320F92099A1A60FFF703
:1052E0006AB825AA0B990C9802F098F900287FF467
:1052F0000DA9C8468DE4269B274AC8F80020013333
:1053000001340122072B27942693C8F8042072DC6D
:1053100008F1080829B9139B1BB9079BD8077FF52B
:1053200003AA269B19981A9AC8F80020013302464E
:105330002244072B2792C8F80400269300F38D819E
:1053400008F108080029C0F265811399C8F80060C7
:1053500001338C18072B27942693C8F804107FF785
:10536000E1A92CE50F9A09991368CD170846043274
:1053700029460F92C3E90001FFF71DB825AA0B9932
:105380000C9802F04BF900287FF4C0A8279CC8466F
:1053900058E400BF24D7440010D7440040210C98A3
:1053A00001F00CFA0B9A10601061002800F0F281F5
:1053B0000B9A40235361FEF7EEBF23A820A90A9C55
:1053C000049003911FA803210290089A01943B4680
:1053D00000910C9800F09CFA25460646119B462B3E
:1053E00006EB05047FF429AF3378302B00F0788189
:1053F0001F9D2C4421E725AA0B990C9802F00EF969
:1054000000287FF483A81F99279CC84682E70A9B3F
:10541000002B08BF01230A93DBE630460A9402F012
:105420008FF80F950E90CDF81CB00346FFF7F9B931
:105430002D2700238DF877700A93FFF7AEB81F9BD6
:1054400012931A46033304DB0A9B19469142BFF6B6
:1054500017AF119B023B11939DF844308DF88430B7
:10546000129B013B002B1F93BDBF129BC3F1010395
:105470002D222B22092B8DF8852040F316810DF16A
:1054800093042046AB4D00E0104685FB0312D9176C
:10549000C1EBA20101EB8102A3EB420230320929E8
:1054A00000F8012C0B4600F1FF32EDDC30330238FE
:1054B000D9B2844202F8011C40F265810DF18600E8
:1054C000134601E013F8011B00F8011BA342F9D1B8
:1054D00001339B1A0DF18602134421AA9B1A139AD9
:1054E0001B93012A13440E9340F319810E9B199AC2
:1054F00013440E9323EAE373089300231293CFE639
:1055000025AA0B990C9802F089F800287EF4FEAFCA
:10551000279CC846D7E42346A2E625AA0B990C98F7
:1055200002F07CF800287EF4F1AF1F9A279CC84651
:10553000AEE525AA0B990C9802F070F800287EF4CD
:10554000E5AF1F9A139B279C9A1AC846B8E50A9B99
:105550001296062B28BF06230A96374608930F9506
:10556000CDF81CB00E93744EFFF716B823A820A9EF
:105570000A9D049003911FA803210290089A0195A7
:105580003B4600910C9800F0C3F9064644192BE7FE
:1055900006230A931DE62D278DF87770FFF7CDBA05
:1055A000199A139B1344129A0E93002A40F3B08069
:1055B00023EAE37308936723119371E6002B40F30A
:1055C000C3800A9A002A40F099801BF0010F40F036
:1055D000958008930E9363E60A9B08930E930A90B6
:1055E0000F95CDF81CB012909DF87770FEF7D4BFE0
:1055F000119B472B7FF420AE1BF0010F7FF4EEAE22
:10560000239B9B1B13930E9B472B3FF418AF1F9BB1
:10561000129321E74F421031484D2FDA1024DDF864
:1056200030B004E008F10808103F102F26DD0133E8
:105630001032072B27922693C8F80050C8F8044070
:10564000F0DD25AA0B99584601F0E8FF00287EF40A
:105650005DAF279A269BC846E6E725AA0B990C98CA
:1056600001F0DCFF00287EF451AF1F99279A269B9A
:10567000C84667E600200A90FEF7D0BE01333A44E0
:10568000072B88E8A0002792269308F108087FF7E7
:105690005CAE25AA0B990C9801F0C0FF00287EF49F
:1056A00035AF279A269BC8464FE6303330228DF817
:1056B00087308DF8862022AB0FE7129B199A13448E
:1056C0000E9375E7239BCBE5149B1D4E002BB6BFB5
:1056D0002D279DF877708DF877701A4BFFF72FBA4A
:1056E000169A0898179B394602F062FC00287FF44E
:1056F0007FAEC5F101051F952C449EE5129B199ABA
:1057000013440A9A1A4422EAE2730E920893C7E5F8
:10571000129B0E9AC3F101031A441346D0E71BF003
:10572000010312937FF4E2AE0E9B23EAE373089326
:10573000B6E500BF6766666608D7440024D7440014
:10574000DCD64400D8D644000A9B13B91BF0010FE5
:1057500002D0199B0133D4E701233AE70F9D9AF851
:105760000130286840EAE0700A9028460430A246DA
:105770000F90FEF751BE8DF87710FFF767B88DF8E0
:105780007710FFF715BA0DF18603A6E68DF87710AE
:10579000FFF7EBB80C9A0C2313604FF0FF3309931B
:1057A000FEF7BDBE8DF87710FFF79AB98DF8771028
:1057B000FFF776B98DF87710FFF759B98DF87710A4
:1057C000FFF712B9024B13B1024800F005B8704759
:1057D0000000000065674000002301461A46184695
:1057E00001F09ABF02690B69934200F38D802DE9A5
:1057F000F04F03F1FF3801F1140700F1140B57F8D3
:1058000028205BF828304FEA880483B00132B3FBCC
:10581000F2F90BEB0403009407EB040A0193B9F1CE
:10582000000F39D000252E46BC46DE465CF8044BFE
:10583000DEF80030A2B209FB0255220C2C0C09FB49
:105840000242ADB2751B96B2C6EB134615FA83F34E
:1058500006EB23469BB243EA0643E2454FEA124574
:105860004EF8043B4FEA2646E0D2009B5BF803303B
:1058700093B9019C231F9B450CD254F8043C4BB9AF
:10588000A4F1080302E01A68043B1AB99B4508F129
:10589000FF38F8D3C0F81080044601F035FD002829
:1058A0002EDB09F101095D46002357F8041B286827
:1058B0008AB29A1A0B0C12FA80F2C3EB104303EB74
:1058C000224392B242EA0342BA4545F8042B4FEA1A
:1058D0002343EAD25BF828200BEB880382B91A1F16
:1058E00093450BD253F8042C42B9083B02E01A68E6
:1058F000043B1AB99B4508F1FF38F8D3C4F810806F
:10590000484603B0BDE8F08F00207047000000005B
:105910002DE9F04F016C9BB00446279E92469B46B2
:1059200041B1426C4A60012393408B6001F014FB4B
:1059300000232364BBF1000F5D4635DB0023336099
:105940009D4BAB4315D0504659460022002302F030
:105950002FFB804600282DD0269A01231360289B18
:10596000002B00F0BD809548186001381BB0BDE8E1
:10597000F08F269A42F20F731360BAF1000F0DD127
:10598000C5F3130555B9289B8D48002BEED000F1C7
:105990000803289A13601BB0BDE8F08F289B894844
:1059A000002BE3D0C31CF4E701232BF00045336048
:1059B000AB46C5E718AA19AB0192009352465B4665
:1059C000204601F041FD2B0D814671D0CBF313022F
:1059D00042F07F51189FCDF850805046A3F2FF3619
:1059E00041F440110022784BFEF734F86CA3D3E960
:1059F0000023FEF7E3F96CA3D3E90023FEF72CF8AC
:105A0000CDE902013046FEF773F969A3D3E900231B
:105A1000FEF7D4F902460B46DDE90201FEF71CF859
:105A2000CDE90401FEF7DCFB002202900023DDE952
:105A3000040102F0C7FA002840F07381029D162D80
:105A400000F25D81614B03EBC503D3E900015246CF
:105A50005B4602F0D5FA002800F0C5816B1E029368
:105A600000230E93BF1B7B1E069300F1548100237D
:105A70000893029B002BC0F24581069A0D931146B4
:105A80001944002306910C93249B092B2AD8052B3B
:105A900040F35B86043B24930025249B023B032BAD
:105AA00000F24286DFE813F0D403C902DF03610489
:105AB000189F199E3E4406F23243202B40F38E81FC
:105AC000C3F1400306F212409D402AFA00F0284339
:105AD000FEF7FEF80123013EA1F1F871149381E76E
